:1000000009C00EC025C00CC00BC00AC009C008C082
:1000100020C006C011241FBECFE9CDBF2ED06DC0B9
:10002000EFCFF894A89514BE88E981BD81E681BD23
:10003000789408958FEFC19A95E09A95F1F70000B2
:10004000C19895E09A95F1F700008150A1F70895C5
:1000500018951F920F920FB60F9211248F930FB61F
:10006000F894A89581B5886181BD11BC0FBE8F91B0
:100070000F900FBE0F901F901895D3DF83E087BBC2
:1000800094E098BB80E888B984B3886184BB82E03F
:1000900085BD85B7877E806185BF80E28BBF95BBBC
:1000A0007894C3E0D2E0B29BC5DF379AC09A85E06E
:1000B0008A95F1F70000C7B9369A3699FECF24B178
:1000C00035B1D7B9369A3699FECF84B195B19695A8
:1000D00087952817390708F4ADDFB29BECCFC0989D
:1000E00037988AB780628ABF9CDF85B7806285BFF8
:0E00F000889585B78F7D85BFD6CFF894FFCF5A
:00000001FF
